:020000040800F2
:10000000D80B00203D100008C5110008C7110008DA
:10001000CB110008CF110008D31100080000000028
:10002000000000000000000000000000D7110008E0
:10003000D911000800000000DB110008DD110008E4
:1000400057100008571000085710000857100008F4
:1000500057100008571000085710000857100008E4
:1000600057100008571000085710000857100008D4
:1000700057100008571000085710000857100008C4
:1000800057100008571000085710000857100008B4
:1000900057100008571000085710000857100008A4
:1000A0005710000857100008571000085710000894
:1000B0005710000857100008571000085710000884
:1000C0005710000857100008571000085710000874
:1000D000571000082B2100089F1300087F1200080A
:1000E0005710000857100008571000085710000854
:1000F0005710000857100008571000085710000844
:100100005710000857100008571000085710000833
:100110005710000857100008571000085710000823
:100120005710000857100008571000085710000813
:1001300000F002F800F090F80AA090E8000C824469
:100140008344AAF10107DA4501D100F085F8AFF246
:10015000090EBAE80F0013F0010F18BFFB1A43F0A5
:1001600001031847803A0000A03A0000103A24BF6B
:1001700078C878C1FAD8520724BF30C830C144BF0C
:1001800004680C607047000000230024002500264E
:10019000103A28BF78C1FBD8520728BF30C148BFEA
:1001A0000B6070476E2902F0DA82702902F04584F4
:1001B000662903F00984652903F00684672903F0A2
:1001C00003846129AFF3008003681B0A28BF41F054
:1001D0008001692902F0A680642902F0A3807529B4
:1001E00002F0A0806F2902F0D383782902F01184F5
:1001F000E92902F06D83E42902F06A83F52902F00F
:100200006783EF2902F0D083F82902F01084036895
:10021000DB0928BF41F08001632902F0DC827329E9
:1002200002F0E182E32902F06F86F32902F074867E
:10023000002070471FB502F0C5FE04000020002119
:1002400003F0ACFB401C60600020002103F090FB39
:10025000E0601FBD10B510BD02F086FE1146FFF72D
:10026000E9FF00F062FF02F05FFF03B4FFF7F2FF67
:1002700003BC01F0FBFE00000CB5002001900090D3
:100280006C48006840F480306A49086000BF6948E3
:10029000006800F4003000900198401C0190009824
:1002A00018B90198B0F5A06FF1D16248006800F468
:1002B000003010B10120009001E000200090009873
:1002C000012843D15C48006840F010005A4908609A
:1002D0000846006820F0030008600846006840F007
:1002E0000200086053484068524948600846406828
:1002F00048600846406840F48060486008464068AE
:1003000020F47C1048600846406840F4E8104860DB
:100310000846006840F08070086000BF45480068EB
:1003200000F000700028F9D04248406820F0030037
:10033000404948600846406840F00200486000BFFD
:100340003C48406800F00C000828F9D10CBD10B5FD
:10035000FFF792FF10BD10B53648006840F001006D
:1003600034490860084640683449084031494860CB
:1003700008460068324908402E490860084600686F
:1003800020F4802008600846406820F4FE004860A1
:100390004FF41F008860FFF7DAFF4FF00060294933
:1003A000086010BD10B5002100200022214B5B68C1
:1003B00003F00C0121B1042906D0082928D107E057
:1003C000214B224C236027E01F4B204C236023E06D
:1003D000184B5B6803F47010164B5B6803F48032B3
:1003E000022303EB904022B9194B4343174C23607F
:1003F0000DE0104B5B6803F4003323B1144B43430F
:10040000124C236003E0104B4343104C236003E085
:100410000D4B0E4C236000BF00BF064B5B68C3F35F
:1004200003130C4CE15C094B1B68CB40074C236069
:1004300010BD000000100240002002400000FFF844
:10044000FFFFF6FE08ED00E000127A000000002039
:1004500000093D000400002031490143314A116088
:10046000704770B5002100230F22C47804B32D4CCF
:10047000246804F4E064C4F5E064210AC1F10403D3
:10048000CA40447804FA03F18478144021430901F6
:10049000254C0678A155047804F01F050124AC40D2
:1004A00005786D11AD0005F1E025C5F8004109E0C2
:1004B000047804F01F050124AC401C4D0678761129
:1004C00045F8264070BD1A4A0A400243154B1B1FCF
:1004D0001A60704739B1134A121D12680243114B5A
:1004E0001B1D1A6006E00F4A121D126882430D4B55
:1004F0001B1D1A607047042808D14FF0E0210969DC
:1005000041F004014FF0E022116107E04FF0E021DB
:10051000096921F004014FF0E022116170470000E9
:100520000000FA050CED00E000E400E080E100E0EE
:1005300080FFFF1F10B50446CC48844208D101213A
:10054000042000F02DFB0021042000F029FB46E0F0
:10055000C748844208D10121082000F021FB002176
:10056000082000F01DFB3AE0C248844208D1012176
:10057000102000F015FB0021102000F011FB2EE0F0
:10058000BD48844208D10121202000F009FB002150
:10059000202000F005FB22E0B848844208D1012168
:1005A000402000F0FDFA0021402000F0F9FA16E0AA
:1005B000B348844208D10121802000F0F1FA0021E3
:1005C000802000F0EDFA0AE0AE48844207D1012114
:1005D000801500F0E5FA0021A01500F0E1FA10BD49
:1005E00010B50121084600F0DBFA0021012000F0DF
:1005F000D7FA10BD2DE9F041024600250026002063
:1006000000230024002791F803C00CF00F0591F897
:1006100003C00CF0100CBCF1000F03D091F802C025
:100620004CEA050591F800C0BCF1000F31D0146808
:1006300000202BE04FF0010C0CFA00F3B1F800C0E1
:100640000CEA03069E4220D183004FF00F0C0CFAF7
:1006500003F7BC4305FA03FC4CEA040491F803C019
:10066000BCF1280F06D14FF0010C0CFA00FCC2F8C7
:1006700014C00AE091F803C0BCF1480F05D14FF057
:10068000010C0CFA00FCC2F810C0401C0828D1D3A1
:100690001460B1F800C0BCF1FF0F34DD54680020D5
:1006A0002EE000F1080C4FF0010808FA0CF3B1F845
:1006B00000C00CEA03069E4221D183004FF00F0CCC
:1006C0000CFA03F7BC4305FA03FC4CEA040491F866
:1006D00003C0BCF1280F05D100F1080C08FA0CF892
:1006E000C2F8148091F803C0BCF1480F07D100F1A3
:1006F000080C4FF0010808FA0CF8C2F81080401CF2
:100700000828CED35460BDE8F0814FF6FF71018018
:10071000022181700421C170704702460020936855
:100720000B400BB1012000E00020704701468868B3
:1007300080B2704702460020D3680B400BB1012005
:1007400000E0002070470146C86880B27047016130
:100750007047416170470AB1016100E04161704733
:10076000C16070474FF480320A43826181618261C7
:1007700082698269704702460020434B18684FF631
:100780008073184040EA021008433F4B18607047DE
:100790003E49C8617047F0B50A4600230024002195
:1007A000002500F00046B6F1004F02D1364EF16947
:1007B00001E0354E7168C0F3034583B200F4401682
:1007C000B6F5401F08D121F070612F4E766826F0F3
:1007D00070662D4F7E6012E000F48016B6F5801F23
:1007E00006D1032606FA05F4A14341F0706106E044
:1007F000460D360103FA06F6B14341F0706122B1AD
:10080000460D360103FA06F6314300F00046B6F114
:10081000004F02D11C4EF16101E01B4E7160F0BD32
:1008200030B500228B071C0F0F2303FA04F2164B7E
:1008300008338C1053F824309343134C08348D1034
:1008400044F8253023468C1053F824308C07240FAD
:1008500000FA04F423430C4C08348D1044F825307E
:1008600030BD0A49DC3108607047000000080140D3
:10087000000C01400010014000140140001801402C
:10088000001C014000200140000001400000204207
:10089000DF48006840F00100DD4908600846406814
:1008A000DC490840DA49486008460068DA490840EF
:1008B000D74908600846006820F480200860084690
:1008C000406820F4FE0048604FF41F0088607047C5
:1008D000CF49096821F48031CD4A11601146096879
:1008E00021F480211160B0F5803F03D0B0F5802F56
:1008F0000ED106E0C649096841F48031C44A11604E
:1009000007E0C349096841F4A021C14A116000E031
:1009100000BF00BF704710B5014600220023002031
:100920004A11012A02D1BA4C236806E0022A02D1F8
:10093000B74C236A01E0B64C636A01F01F02012440
:1009400094401C400CB1012000E0002010BD38B5DF
:10095000002000900024002500BF3120FFF7DBFFBE
:1009600005460098401C00900098B0F5A06F01D09B
:10097000002DF2D03120FFF7CEFF08B1012400E0B6
:100980000024204638BD01460020A14A106820F00E
:10099000F80040EAC10010607047A0490860704745
:1009A000024600209A4B586820F47C1042EA01036A
:1009B0001843974B5860704798490866704701463E
:1009C0000020934A506820F00300084350607047AD
:1009D0008F48406800F00C007047014600208C4AA8
:1009E000506820F0F0000843506070470146002036
:1009F000874A506820F4E060084350607047014621
:100A00000020834A506820F4605040EAC1005060E2
:100A1000704729B17E4A527A02437D4B5A7204E0F4
:100A20007B4A527A82437A4B5A7270477B49D8315B
:100A30000860704701460020754A506820F4404025
:100A40000843506070470021714A20321170704A8B
:100A500082F82010012802D004280AD104E00121E4
:100A60006B4A2032117005E00521694A203211706D
:100A700000E000BF00BF70476949086070476449E3
:100A8000096A0143624A1162704765494439086046
:100A9000704730B500210022002400235C4D6D68B2
:100AA00005F00C0121B1042905D0082923D105E066
:100AB0005C4D056022E05B4D05601FE0544D6D68A4
:100AC00005F47012524D6D6805F48034022505EB73
:100AD00092421CB9544D554305600BE04C4D6D6876
:100AE00005F400351DB1504D5543056002E04D4DF4
:100AF0005543056002E04B4D056000BF00BF444D0B
:100B00006D6805F0F0010909484D6B5C0568DD4032
:100B100045603F4D6D6805F4E061090A434D6B5C2B
:100B20004568DD4085603A4D6D6805F46051C90A3D
:100B30003E4D6B5C4568DD40C560354D6D6805F424
:100B40004041890B3A4D6B5CC568B5FBF3F5056117
:100B500030BD29B12E4A526902432D4B5A6104E03F
:100B60002B4A526982432A4B5A61704729B1284A5D
:100B700092690243264B9A6104E0254A92698243B6
:100B8000234B9A61704729B1214AD2690243204B15
:100B9000DA6104E01E4AD26982431D4BDA61704774
:100BA00029B11B4AD2680243194BDA6004E0184AA3
:100BB000D2688243164BDA60704729B1144A126931
:100BC0000243134B1A6104E0114A12698243104B2D
:100BD0001A61704712494039086070470F49C8646C
:100BE00070470B49C87170470948406A40F08070EF
:100BF00007494862704701460020054A92680A404A
:100C00000AB1012000E00020704701498872704756
:100C1000001002400000FFF8FFFFF6FE0000424215
:100C20008004424200127A0000093D0014000020B6
:100C30002400002010B50446FB48844209D101215C
:100C40008803FFF7ADFF00214FF48040FFF7A8FFB6
:100C500032E0F648844209D101214804FFF7ADFF94
:100C600000214FF40030FFF7A8FF25E0F048844250
:100C700009D101218804FFF7A0FF00214FF4802053
:100C8000FFF79BFF18E0EB48844209D10121C8041B
:100C9000FFF793FF00214FF40020FFF78EFF0BE0DA
:100CA000E548844208D101210805FFF786FF0021AD
:100CB0004FF48010FFF781FF10BD2DE9F04786B09B
:100CC00005460E460024A24600BFA1460027B08973
:100CD00000B100BF2F462C8A4CF6FF700440F0880C
:100CE00004432C82AC894EF6F3100440B08831895D
:100CF0000843718908430443AC81AC8A4FF6FF4036
:100D00000440B0890443AC8201A8FFF7C2FEC64884
:100D1000874202D1DDF810A001E0DDF80CA0A8891F
:100D200000F4004040B10AEBCA0000EB0A10316841
:100D30004900B0FBF1F807E00AEBCA0000EB0A102B
:100D400031688900B0FBF1F86420B8FBF0F00401D1
:100D50002009642101FB1089A88900F4004040B1FA
:100D6000322000EBC900B0FBF1F000F007000443B3
:100D700008E0322000EB09106421B0FBF1F000F034
:100D80000F0004432C8106B0BDE8F0874FF41651E4
:100D9000016000218180C18001810C2141810021FD
:100DA0008181704710B502460020108A4FF2FF0380
:100DB00018400B884C8823438C882343CC882343DA
:100DC0001843108210BD0021018041808180C180C4
:100DD000704721B1828942F40052828104E0828905
:100DE0004DF6FF731A4082817047F0B50346002428
:100DF00000260025002040F66A17B94200D100BF46
:100E00001846C1F3421401F01F06012707FA06F540
:100E1000012C01D10C3004E0022C01D1103000E093
:100E200014301AB107682F43076002E00768AF4328
:100E30000760F0BD1AB1838A0B43838202E0838A84
:100E40008B4383827047028A4FF6F0731A40028206
:100E5000028A0A430282704782894FF2FF731A4066
:100E6000828182890A438281704721B1828942F05E
:100E70000202828104E082894FF6FD731A4082816A
:100E80007047028A4FF6DF731A400282028A0A43D1
:100E90000282704721B1028A42F48042028204E059
:100EA000028A4BF6FF731A4002827047C1F30802B0
:100EB0008280704701468888C0F3080070478189A6
:100EC00041F0010181817047028BD2B20283028B13
:100ED00042EA012202837047028B02F47F420283BE
:100EE000028B0A430283704721B1828A42F02002BA
:100EF000828204E0828A4FF6DF731A408282704752
:100F000021B1828A42F01002828204E0828A4FF686
:100F1000EF731A408282704721B1828A42F0080240
:100F2000828204E0828A4FF6F7731A408282704709
:100F300021B1828942F40042828103E08289C2F3B6
:100F40000E028281704721B1828A42F4006282825D
:100F500004E0828A4FF2FF731A4082827047828ACD
:100F60004FF6FB731A408282828A0A43828270475C
:100F700021B1828A42F00202828204E0828A4FF624
:100F8000FD731A408282704702460020B1F5007F4F
:100F900000D100BF13880B400BB1012000E00020FE
:100FA000704701F40072B2F5007F00D100BFCA4360
:100FB0000280704770B502460024002300250020FF
:100FC00040F66A16B14200D100BFC1F3421501F0EC
:100FD0001F03012606FA03F3012D02D1968933403F
:100FE00006E0022D02D1168A334001E0968A334092
:100FF0000C12012606FA04F41688344013B10CB121
:10100000012000E0002070BD10B50022002340F652
:101010006A14A14200D100BF0A1201249440A3B275
:10102000DC43048010BD0000003801400044004053
:1010300000480040004C00400050004009488047F4
:1010400009480047FEE7FEE7FEE7FEE7FEE7FEE7AA
:10105000FEE7FEE7FEE7FEE704480549054A064BC2
:10106000704700005703000831010008D805002030
:10107000D80B0020D8070020D807002070B53C48C6
:1010800001F0D3F80646002E4ED0002508E038487F
:10109000405D3849495D884200D003E0681CC5B214
:1010A000072DF4DB00BF072D3ED108240AE03048AD
:1010B000015DA4F10800304A105C814200D003E0D9
:1010C000601CC4B20F2CF2DB00BF0F2C02D100F069
:1010D000A4FD28E008240AE02548015DA4F10800E9
:1010E000264A105C814200D003E0601CC4B20F2C81
:1010F000F2DB00BF0F2C02D100F035FD13E0082415
:101100000AE01B48015DA4F108001D4A105C814201
:1011100000D003E0601CC4B20F2CF2DB00BF0F2C28
:1011200001D100F089FC00BF70BD482000F038FFFD
:101130004FF4A060FFF790F94FF4E13000F0A9FF01
:101140004FF4E13000F06EF900F001FE0DA001F067
:101150009DF84FF4165001F011F80FA001F096F829
:1011600004E013A001F092F8FFF788FFF9E7000010
:1011700058000020280000203000002043000020FC
:101180003900002057494649B3F5CABCBBAFCDEA88
:10119000B1CF0D0A000000004C4F5241B4AEBFDA8F
:1011A000B3F5CABCBBAFCDEAB1CF090D0A00000050
:1011B0007768696C65283129D1ADBBB7D6D0090DE8
:1011C0000A000000704700BFFEE700BFFEE700BF57
:1011D000FEE700BFFEE770477047704770470000AA
:1011E00010B586B0044601218804FFF7CCFC01212C
:1011F0000820FFF7BBFC4FF48060ADF8140003201B
:101200008DF8160018208DF8170005A9FC48FFF787
:10121000F1F94FF40060ADF8140004208DF81700C8
:1012200005A9F748FFF7E6F927208DF80000002010
:101230008DF801008DF8020001208DF8030068464A
:10124000FFF70FF901940020ADF80800ADF80A008F
:10125000ADF80C00ADF810000C20ADF80E0001A99F
:10126000E848FFF72AFD012240F22551E548FFF743
:10127000BCFD0121E348FFF7ACFD06B010BD10B581
:1012800040F22551DF48FFF795FED8B1DD48FFF762
:1012900011FEC4B2DC48B0F80004C0F30E0040F206
:1012A000FF3188420EDAD849B1F80014C1F30E00BC
:1012B000411CD54AB2F8002461F30E02D249A1F8CC
:1012C00000240C5440F22441CE48FFF773FE01285D
:1012D00017D1CD48B0F8000420F4004000F50040DC
:1012E000C949A1F80004C748FFF7E4FDC4B2C7A18B
:1012F000C54801F017F908B1012000E00020C649F7
:10130000087010BD10B586B0044601214804FFF7EF
:101310003AFC01210420FFF729FC0420ADF8140059
:1013200003208DF8160018208DF8170005A9BB487A
:10133000FFF760F90820ADF8140004208DF81700BD
:1013400005A9B648FFF756F926208DF800000020C1
:101350008DF801008DF8020001208DF80300684629
:10136000FFF77FF801940020ADF80800ADF80A00FF
:10137000ADF80C00ADF810000C20ADF80E0001A97E
:10138000A748FFF79AFC012240F22551A448FFF735
:101390002CFD0121A248FFF71CFD06B010BD10B5C1
:1013A00040F225519E48FFF705FED8B19C48FFF753
:1013B00081FDC4B29448B0F80004C0F30E0040F2BE
:1013C000FF3188420EDA9049B1F80014C1F30E00E3
:1013D000411C8D4AB2F8002461F30E028A49A1F83B
:1013E00000240C5440F224418D48FFF7E3FD01280E
:1013F00017D18548B0F8000420F4004000F5004003
:101400008149A1F800048648FFF754FDC4B27FA1CA
:101410007D4801F087F808B1012000E000207E49F6
:10142000087010BD38B5044601214FF4A070FFF7D5
:101430009DFB4020ADF8000010208DF80300032034
:101440008DF8020069467748FFF7D4F88020ADF8A0
:10145000000069467448FFF7CDF82046FFF752FFB9
:1014600040217048FFF773F980216F48FFF771F949
:1014700038BD2DE9F04106460C4615461F46624828
:10148000B0F800046FF30E005F49A1F80004324683
:1014900066A1634800F04DFA1CB915B90120BDE8FA
:1014A000F081B8B200F0BAFD00205749B1F800143D
:1014B000C1F30E01544A505411465EA000F0E6FEFE
:1014C000B4B1ADB12146504801F02CF808B101206B
:1014D00000E0002040B929464B4801F023F808B14C
:1014E000012000E0002008B10120D8E70020D6E765
:1014F00044B12146444801F015F808B10120CEE777
:101500000020CCE72946404801F00CF808B1012042
:10151000C5E70020C3E710B540214248FFF719F99D
:101520004FF4FA7000F07AFD40213E48FFF70FF9C2
:1015300010BD10B5002440213A48FFF708F94FF4D8
:101540007A7000F06BFD0CE04FF4FA7300223AA1C0
:101550003AA0FFF78EFF00B110BDFFF7DCFF601C63
:10156000C4B20A2CF0DB00BFF6E710B5044624B184
:10157000012C0AD0022C18D10FE040F6C41330A27F
:101580002DA132A0FFF775FF10BD40F6C4132CA2A9
:1015900029A131A0FFF76DFFF6E740F6C41328A29A
:1015A00025A130A0FFF765FFEEE70020ECE730B59E
:1015B0009FB004460D462B4622462DA101A800F0FF
:1015C00071FE41F2883300221BA101A8FFF751FFF1
:1015D0001FB030BD10B586B004460CB1012000E04C
:1015E0000020024627A101A800F05CFE4FF4FA7328
:1015F000002211A101A8FFF73CFF06B010BD0000BA
:10160000000C014000480040A8000020434C4F530C
:1016100045440D0A000000004B0000200008014076
:1016200000440040001801400020014025730D0ACD
:1016300000000000257300004F4B000041540000E3
:101640006E6F206368616E676500000041542B4334
:10165000574D4F44453D310041542B43574D4F4466
:10166000453D320041542B43574D4F44453D3300D7
:1016700041542B43574A41503D222573222C2225A9
:101680007322000041542B4349504D55583D256469
:1016900000000000F0B5B9B006460F4614461D46DE
:1016A000642120A800F09FFF16B1012E10D107E0A1
:1016B0003B4650A250A120A8009400F0F3FD08E0A2
:1016C0003B4651A24CA120A8009400F0EBFD00E0A5
:1016D00000BF00BF052D06DA20AB2A464BA102A8A9
:1016E00000F0E0FD04E020AA4DA102A800F0DAFD20
:1016F0004FF47A634EA2AFF2C00102A8FFF7B9FE21
:1017000039B0F0BD10B54FF4FA730022AFF2D80132
:101710004BA0FFF7AEFE08B9002010BD4FF4FA73DE
:101720004BA2AFF2EC014BA0FFF7A3FEF5E72DE9CA
:10173000F04186B007460C4615461E464FF000089D
:101740003FB1224639A1464800F0F3F84FF00108B6
:101750001CE0052E06DAAB1C324642A101A800F0BF
:10176000A1FD04E0AA1C44A101A800F09BFD4FF4D8
:101770007A73002244A101A8FFF77BFE4FF47A732D
:10178000002242A12046FFF774FE8046404606B084
:10179000BDE8F08110B54FF47A7000F03FFC3DA138
:1017A0002F4800F0C6F84FF4FA7000F037FC10BD77
:1017B00010B54FF4FA730022AFF2841136A0FFF790
:1017C00058FEA0B138A13B4800F0ACFE08B10220A1
:1017D00010BD39A1374800F0A5FE08B10320F7E796
:1017E00038A1344800F09EFE08B10420F0E7002044
:1017F000EEE7000054435000222573222C2225736B
:10180000222C2573000000005544500041542B4306
:10181000495053544152543D25642C257300000017
:1018200041542B43495053544152543D25730000B9
:10183000414C5245415920434F4E4E4543540000C0
:1018400041542B4349504D4F44453D310000000069
:101850003E00000041542B43495053454E44000084
:101860000044004041542B43495053454E443D25CC
:10187000642C25640000000041542B43495053451B
:101880004E443D25640000003E20000053454E4478
:10189000204F4B002B2B2B0041542B4349505354CA
:1018A00041545553000000005354415455533A32AB
:1018B0000D0A0000A80000205354415455533A33F8
:1018C0000D0A00005354415455533A340D0A000098
:1018D000F0B503460D461646002729460A2E03D0CA
:1018E000002008702846F0BD33B9302001F8010B04
:1018F000002008702846F6E7002B03DA2D2001F8B7
:10190000010B5B4242F210720DE093FBF2F404B95A
:1019100037B104F1300001F8010B04FB1233012749
:101920000A2092FBF0F2002AEFDC00200870284623
:10193000D9E70FB470B586B006460CA8019073E0E5
:101940000B9800785C281CD10B98401C0B900078F9
:101950006E2809D072280FD10D213046FFF7A6FA64
:101960000B98401C0B900BE00A213046FFF79EFAC3
:101970000B98401C0B9003E00B98401C0B9000BF91
:101980004BE00B980078252840D10B98401C0B9019
:101990000078642818D0732833D1019810C80190BA
:1019A0000BE021783046FFF781FA00BF80213046F6
:1019B000FFF7EAFA0028F9D0641C20780028F0D15B
:1019C0000B98401C0B9020E0019820C801900A223F
:1019D00002A92846FFF77CFF02AC0BE021783046D5
:1019E000FFF764FA00BF80213046FFF7CDFA0028E8
:1019F000F9D0641C20780028F0D10B98401C0B9083
:101A000003E00B98401C0B9000BF06E00B9810F809
:101A1000011B0B903046FFF749FA00BF802130468A
:101A2000FFF7B2FA0028F9D00B980078002887D188
:101A300006B070BC5DF814FB70B5F2B04FF4B07135
:101A40001AA800F0D0FD642101A800F0CCFD00250B
:101A5000D8480078002824D0FFF79CFE00BFFFF78D
:101A6000A7FE0446002CFAD0042C15D1D2A000F019
:101A70000DFC00BFD9A1DCA0FFF799FD0028F9D02B
:101A800000BF0523D9A2DAA10020FFF703FE00283A
:101A9000F7D0DBA000F0FAFB00BFFFF733FE002811
:101AA000FBD0DE4800F0E6FBDDA000F0EFFBDDA19F
:101AB00001A800F08CFD01A800F0E8FBD8A000F020
:101AC000E5FBD649123101A800F081FD01A800F024
:101AD000DDFBD3A000F0DAFBE1A101A800F022FDBC
:101AE000861EE2A1304600F02FFD01A800F0CEFBDB
:101AF000CBA000F0CBFBDAA1C84800F013FD00F149
:101B00000906314601A800F062FD01A800F0BEFB05
:101B1000C3A000F0BBFBD7A101A800F058FD01A8AD
:101B200000F0B4FBBEA000F0B1FB01A800F030FD56
:101B3000C5B22A46D1491AA800F0B4FB01A91AA8D7
:101B400000F045FD1AA800F0A1FBB5A000F09EFB37
:101B5000052300221AA90120FFF7E9FDC8A000F023
:101B600095FB72B070BD30B5E5B04FF496711AA810
:101B700000F039FD642101A800F035FD00258D48F5
:101B80000078002824D0FFF705FE00BFFFF710FE05
:101B90000446002CFAD0042C15D187A000F076FB67
:101BA00000BF8EA190A0FFF702FD0028F9D000BF72
:101BB00005238EA28EA10020FFF76CFD0028F7D030
:101BC0008FA000F063FB00BFFFF79CFD0028FBD057
:101BD000AFA101A800F0FBFC9049103101A800F072
:101BE000F6FCB9A101A800F0F2FC01A800F0D0FCBD
:101BF000C5B22A46A1491AA800F054FB01A91AA8A7
:101C000000F0E5FC052300221AA90120FFF78FFD53
:101C10009BA000F03BFB65B030BD30B5E5B04FF4A4
:101C200096711AA800F0DFFC642101A800F0DBFC2B
:101C3000002560480078002824D0FFF7ABFD00BFE6
:101C4000FFF7B6FD0446002CFAD0042C15D15AA09B
:101C500000F01CFB00BF61A163A0FFF7A8FC0028F7
:101C6000F9D000BF052361A261A10020FFF712FD9A
:101C70000028F7D062A000F009FB00BFFFF742FD8B
:101C80000028FBD092A101A800F0A1FC634911310A
:101C900001A800F09CFC8CA101A800F098FC01A810
:101CA00000F076FCC5B22A4674491AA800F0FAFA88
:101CB00001A91AA800F08BFC052300221AA9012013
:101CC000FFF735FD6EA000F0E1FA65B030BD30B52C
:101CD000B3B00546C82101A800F085FC354800785E
:101CE000002824D0FFF756FD00BFFFF761FD044632
:101CF000002CFAD0042C15D12FA000F0C7FA00BF99
:101D000036A139A0FFF753FC0028F9D000BF052306
:101D100036A237A10020FFF7BDFC0028F7D038A07D
:101D200000F0B4FA00BFFFF7EDFC0028FBD02A4614
:101D3000764901A800F0B6FA0523002201A9012086
:101D4000FFF7F5FC4EA000F0A1FA33B030BD10B59E
:101D50006FA000F09BFA80217648FEF7F8FC76A091
:101D600000F094FAFFF7E5FB7BA000F08FFA00206B
:101D7000FFF7FBFB7DA000F089FA00BF17A11AA0B6
:101D8000FFF715FC0028F9D00020FFF723FC00BF67
:101D9000052316A216A10020FFF77CFC0028F7D02F
:101DA00000BFFFF7AFFC0028FBD077A000F06EFA71
:101DB00010BD00004B0000200D0AC7EBC9D4B5C808
:101DC000A3ACD5FDD4DAD6D8C1ACC8C8B5E3BACD7A
:101DD000B7FECEF1C6F72E2E2E0D0A006C69616E8D
:101DE000677A756A69650000667A730038300000AA
:101DF0003138332E3233302E34302E33330000005E
:101E00000D0AD6D8C1ACC8C8B5E3BACDB7FECEF17D
:101E1000C6F7B3C9B9A60D0A00000000580000209B
:101E20000D0A00007B226461746173747265616DD8
:101E300073223A5B7B226964223A226D6170222C04
:101E40002264617461706F696E7473223A5B7B22E5
:101E500076616C7565223A7B226C6F6E223A0000C7
:101E60006C61746974756465200000002C226C61DB
:101E700074223A007D7D5D7D5D7D0000A43A0008FE
:101E80000D0AB7A2CBCDB3C9B9A60D0A0000000058
:101E90007B226461746173747265616D73223A5B55
:101EA0007B226964223A2270726573757265222CF6
:101EB0002264617461706F696E7473223A5B7B2275
:101EC00076616C7565223A007D5D7D5D7D00000068
:101ED0007B226461746173747265616D73223A5B15
:101EE0007B226964223A22756C747261736F6E6929
:101EF00063222C2264617461706F696E7473223A7C
:101F00005B7B2276616C7565223A0000243B0008F9
:101F10000D0AD5FDD4DAC5E4D6C345535038323660
:101F200036C7EBC4CDD0C4B5C8B4FD2E2E2E0D0AD5
:101F300000000000002001400D0A455350383236A1
:101F4000365F43485F50445F50696E5F5365744825
:101F50002E2E2E0D0A0000000D0A45535038323641
:101F6000365F41545F546573740D0A000D0A455382
:101F700050383236365F4E65745F4D6F64655F432F
:101F8000686F6F73650D0A000D0AC5E4D6C345532B
:101F90005038323636204F4BA3A10D0A0000000006
:101FA00010B504466FF00400FEF7A5FAE11704EB44
:101FB0005171C1F3C7012B4A11701046007800EB34
:101FC0004001C1EBC0104FF6FF7101EAC000264985
:101FD000088010BD0146234A12784A434FF0E0239F
:101FE0005A6100229A611A46126942F001021A618E
:101FF00000BF4FF0E022106900F001021AB100F4B6
:102000008032002AF5D04FF0E022126922F001025E
:102010004FF0E0231A6100229A6170470146124A8C
:1020200012884A434FF0E0235A6100229A611A460F
:10203000126942F001021A6100BF4FF0E0221069FC
:1020400000F001021AB100F48032002AF5D04FF0FE
:10205000E022126922F001024FF0E0231A6100220F
:102060009A6170474C0000204E000020014600BFDE
:10207000704770B504460D46E1B23C48FEF716FFC6
:1020800000BF80213948FEF77FFF0028F9D02046A5
:1020900070BD10B586B00446012144F20400FEF77D
:1020A00065FD4FF40070ADF8140003208DF81600A4
:1020B00018208DF8170005A92D48FEF79BFA4FF45C
:1020C0008060ADF8140004208DF8170005A9284899
:1020D000FEF790FA25208DF8000003208DF801000E
:1020E0008DF8020001208DF803006846FEF7B9F96B
:1020F00001940020ADF80800ADF80A00ADF80C001E
:10210000ADF810000C20ADF80E0001A91748FEF73D
:10211000D4FD012240F225511448FEF766FE01214C
:102120001248FEF756FE06B010BD10B540F225511C
:102130000E48FEF73FFFC0B10C48FEF7BBFEC4B22D
:102140000C480D49098844540B480088401C0A4932
:10215000088008460088C72801DD0020088006485E
:10216000008840F400400449088010BD0038014058
:1021700000080140AA0400205400002010B586B0D9
:10218000044601210820FEF7F1FC18208DF8170005
:1021900002208DF816004002ADF8140005A933485E
:1021A000FEF728FA04208DF817004002ADF814005D
:1021B00005A92E48FEF71EFA2D48FEF73BFD01212A
:1021C0008804FEF7E0FC01940020ADF810000C201C
:1021D000ADF80E000020ADF80C00ADF80A00ADF827
:1021E000080000212248FEF7F4FD01A92048FEF76F
:1021F00064FD01211E48FEF7ECFD06B010BD70B570
:1022000004460D460BE000BF80211948FEF7BCFED6
:102210000028F9D020781649091D0880641C281E62
:10222000A5F10101CDB2EED170BD70B50446002517
:1022300047F6FF7611E020210D48FEF7A5FE0128A4
:1022400008D10B48001D00882070641C681CC5B2B2
:1022500047F6FF76642D00D104E0301EA6F101019F
:102260008EB2E8D100BF284670BD0000000C0140CE
:10227000004800400FB4044910B503AA029800F0CA
:10228000B7FA10BC5DF814FB500000200FB40449ED
:1022900010B503AA029800F0ABFA10BC5DF814FB6D
:1022A000500000200FB41CB5084B06AA7B446946B9
:1022B0000090059800F06DFA04460020694600F091
:1022C0007BFA20461CBC5DF814FB000009050000E9
:1022D00070B50C460546012A05D02878800600D541
:1022E000EA69002302E0012305E05B1C934202D26D
:1022F000E05C0028F9D1A869E618C01AA861286A2C
:1023000018442862284600F098F904E0D5E9012134
:1023100014F8010B9047B442F8D3284600F0A3F913
:1023200070BD00002DE9F0410646002410687529B3
:10233000314616A510D000F0A7F9002802DA404275
:1023400013A507E031688A0701D512A502E0490705
:1023500004D511A5012401E000F09FF900210A2213
:1023600006F1240709E0B0FBF2FCB0FBF2F302FB3C
:102370001C00303078541846491C0028F3D12346FD
:102380002A463046BDE8F04100F090B90000000058
:102390002D0000002B000000200000002DE9F05F60
:1023A000894604464FF0000ADFF874B1FB44C0F8D8
:1023B00020A02046E1688847002874D0252806D050
:1023C000D4E901219047206A401C2062F1E70026F1
:1023D0005F462046E16888472028054607DB312D07
:1023E00005D2781910F8200C08B10643F1E7B007C0
:1023F00001D526F00406C4F81CA00027C4F818A0D4
:102400002A2D09D0284601F0ACFA38B304EB87082E
:10241000303DC8F8185019E059F8041B204604EB69
:1024200087029161E1688847012F054618D1E0696C
:10243000002820DA26F020061DE0D8F8180000EB6E
:10244000800005EB40003038C8F818002046E168ED
:102450008847054601F085FA0028EED1012F0AD001
:102460002E2D08D12046E16888477F1C0546022FA3
:1024700046F02006C4DBA069002803DA404246F09B
:102480000106A061F00701D026F010066C2D0BD0DC
:10249000682D09D04C2D39D06A2D35D0742D35D00A
:1024A0007A2D33D016E038E0E1682F462046884781
:1024B000B842054609D16C2F26D04FF48060E16800
:1024C000064320468847054604E06C2F1AD04FF497
:1024D000807006430DB3A5F14100192802D82035BC
:1024E00046F400664A462946204626604E46FDF7D9
:1024F00059FE80B101280BD0F61D26F0070000F12F
:10250000080956E74020E4E78020D8E70020D6E716
:1025100006F104094DE7284652E7206ABDE8F09F1E
:102520001C16000030B505460B462A4613F8014B31
:1025300012F8010B08B1A042F8D01CB1002802D05B
:102540006D1CF1E7284630BD40EA0103024630B574
:102550009B0710D14FF0013400E008C208C91D1BD1
:102560009D4315EAC41FF8D013F0FF0102F8011BC8
:102570000DD01B0AF8E711F8013B002B02F8013BD4
:1025800005D011F8013B002B02F8013BF3D130BD1F
:1025900010B5431C02E010F8011B71B18107FAD19C
:1025A0004FF0013202C88C1A8C4314EAC211F9D0E0
:1025B000C01A0A0603D0C01E10BDC01A10BD0A04FE
:1025C00001D0801E10BD0902FCD0401E10BD421E6D
:1025D00012F8013F002BFBD111F8013B002B02F850
:1025E000013BF9D170474FF0000200B51346944605
:1025F0009646203922BFA0E80C50A0E80C50B1F15B
:102600002001BFF4F7AF090728BFA0E80C5048BF6E
:102610000CC05DF804EB890028BF40F8042B08BF0C
:10262000704748BF20F8022B11F0804F18BF00F808
:10263000012B704770477047704770B50446856935
:102640000068C10601D5302600E02026C00707D06B
:1026500070BDD4E9012130469047206A401C2062B9
:102660006D1EF6D570BD70B5044685690078C0074B
:1026700007D170BDD4E9012120209047206A401C79
:1026800020626D1EF6D570BD09684A0501D540B2BD
:102690007047C905FCD500B2704709684A0501D5E5
:1026A000C0B27047C905FCD580B270472DE9F0472C
:1026B0000D4699469246044600F1240801688806B2
:1026C00004D5E06921F01001216000E00120A8425A
:1026D00001DD471B00E00027A1697A1902EB090020
:1026E000081AA0612078C00602D42046FFF7A5FF93
:1026F000002608E0D4E901211AF806009047206A74
:10270000401C761C20624E45F4DB2078C0060AD5BA
:102710002046FFF792FF06E0D4E9012130209047E0
:10272000206A401C2062381EA7F10107F4DC07E094
:10273000D4E9012118F805009047206A401C206266
:10274000281EA5F10105F3DC2046FFF78CFF207859
:10275000000602D50220BDE8F0870120FBE71168E2
:102760000268006A530501D508700AE0D30501D557
:10277000088006E0130603D5C217C1E9000200E095
:10278000086001207047000001694A1C0261087856
:10279000704700B58FB0CDE90131002105910549A1
:1027A0007944CDE9031011466846FFF7F7FD0FB0F5
:1027B00000BD0000E5FFFFFF0A6802F8010B0A6098
:1027C000704710B5436913B1AFF3008001E0FFF724
:1027D0007FFD012010BD127800F124010A70002253
:1027E0004A700122EDE711684FF0FF32E9E700007F
:1027F000074B70B50D467B44FFF7CBFF04462846D8
:1028000000F08EFB10B14FF0FF3070BD204670BD60
:1028100079F8FFFF2DE9FF5F15468A460446DFF889
:10282000AC80F8440027D8E900103E46CDE90010FE
:1028300010E03AF816106A4602A800F075FB411C39
:1028400007D02178890603D5E269391891420DD85D
:102850000744761C2078800602D5E069B84205DD81
:10286000AE42E6DB3AF816000028E2D1A069C01BB0
:10287000A0612046FFF7E1FED8E90010CDE9001085
:10288000002017E03AF818106A4602A800F04CFB46
:10289000B0F1FF3F81460BD000250DF1080B05E09C
:1028A000D4E901211BF8050090476D1C4D45F7D375
:1028B00008F10100B0428046E4DB206A384420621F
:1028C0002046FFF7D0FEBDE8FF9F0000BA110000D0
:1028D0002DE9F0418046D21D22F007020025D2E901
:1028E0000002F52915A614D0011E72F1000106DAC6
:1028F0000023D0EB030063EB020211A608E0D8F836
:1029000000108B0701D50FA602E0490701D50EA6DE
:1029100001251146002408F1240704E000F098F88E
:1029200030323A55641C50EA0102F7D12B46324648
:1029300021464046BDE8F041FFF7B8BE0000000068
:102940002D0000002B0000002000000030B400210A
:1029500000F1240408E002F00705D208303542EA0D
:102960004372DB086554491C52EA0305F3D104683D
:10297000002310A2250708D504F020040C4304D03E
:10298000C46901230CA2641EC46130BCFFF78EBE73
:1029900010B5044621461068FFF77FFE0246204628
:1029A000BDE810400023D1E7D21D22F00701D1E994
:1029B0000023CBE70000000030000000F0B40D461B
:1029C0000188090502D5214C7C4402E01F4C7C445F
:1029D0000E34002100F1240608E002F00F0712096E
:1029E000E75D42EA03721B097754491C52EA030768
:1029F000F3D102780023120704D5702D06D009B157
:102A0000022311342246F0BCFFF750BE01231034DC
:102A1000F8E770B504460D4621461068FFF73DFE05
:102A2000024629462046BDE870400023C6E7D21D75
:102A300022F00703D3E90023C0E70368126843F0DC
:102A4000200303600823C3610023B7E71C100000C4
:102A500030B5B0F10A024FEA900E71F100034EEA70
:102A6000817EB0EB0E0061EB91014FEA101E4EEA41
:102A7000017E10EB0E0041EB11114FEA102E4EEAD1
:102A8000016E10EB0E0041EB11214FEA104E4EEAA1
:102A9000014E10EB0E0041EB1141401841F10001D5
:102AA0004FEAD00040EA41704FEAD10110EB8005B7
:102AB0004FEA810444EA907444EB01046D1944EB3D
:102AC0000404521BA3414FF0000348BF0A3200D553
:102AD00030BD401C41F1000130BD70472DE9FF4F72
:102AE0000C461E464FF0FF378BB0D2E90001DDF8EF
:102AF00060800A908A46C1F30A5505B93D46002117
:102B000008464FF00000BAF1000F00F4400005DA6B
:102B100000EB80004FF4400101EA50004FEA905969
:102B2000B9F1010F00DDB9460A9850EA4A000ED00B
:102B300044F61050A5F2FF3545432F14B8F1000FAD
:102B40001ED07542291E1EDDC9F100021CE0B8F13D
:102B5000010F4FF0000001D0302103E0F24305E007
:102B60002154401CB042FBDB30460022002121549E
:102B70000B99C1F80880C1E900200FB0BDE8F08FC3
:102B8000BD1B6D1CDEE74A4600DA694206A800F06C
:102B90005DFA06AB93E8070003AB83E807005046F5
:102BA0000A9900F00FFB8DE80700A0F500501F38D0
:102BB00000900398002D09DD42F21F014A460844A7
:102BC00003A90390684600F06EFD08E0A0F50050F0
:102BD0004A461F3803A90390684600F078FD8DE847
:102BE00007000004000C03D04FF0FF30410800E064
:102BF0001046B8F1000F03D00022009215461EE0E7
:102C0000751E05D4FFF724FF303262556D1EF9D5CD
:102C1000B3460122084302D000227F1C04E0207842
:102C2000302801D100227F1E002A099786D01DE09E
:102C3000112D07DAFFF70CFF303262556D1C50EA98
:102C40000102F5D1084302D00098C8B10EE000217E
:102C5000681E05E0235C625C63542254401E491CDC
:102C60008142F7DBAB46A81B401E0990002004F808
:102C70000B000B98099AC0F80880C0E9002B7CE78C
:102C800011264FF0000859E72DE9F04F8846044619
:102C9000D21D22F0070191B0D1E90001CDE90A016E
:102CA00000F04BFE02460B98C00F01D02D2007E02C
:102CB0002068810701D52B2002E0202101EAC00015
:102CC000032A099001D0072A05DB03464146204626
:102CD00000F07CF90BE12078800601D5E06900E086
:102CE0000620B8F1650F814606D0B8F1660F18D0FE
:102CF000B8F1670F70D131E00020B9F1110F0090E9
:102D000001DB112301E009F101030AAA01A90CA8C2
:102D1000FFF7E4FEDDE90C70002609F101058346AA
:102D200047E001204B4600904FF000470AAA01A956
:102D30000CA8FFF7D3FEDDE90DB00C995D46002627
:102D400010B909F101000D18B9EB050003D4C0F169
:102D5000FF3609F10105A5EB09002BE0B9F1010FE0
:102D600001DA4FF001090020B9F1110F0090484637
:102D700001DD112300E003460AAA01A90CA8FFF710
:102D8000ADFEDDE90C704D46002683462078000735
:102D90000AD4AB4500DA5D4601A8012D04DD4119D6
:102DA00011F8011C302907D04F4502DA17F1040F42
:102DB00004DA012082460FE06D1EEEE7002F02DCF0
:102DC000ED1B3E4403E0781CA84200DD7D1CB81BCF
:102DD00000F1010A4FF000472078000703D4AA450C
:102DE00001DB4FF0FF3A0021B7F1004F0DF143082E
:102DF0008DF8431024D002202B23002F01DA7F42CC
:102E00002D230A21021EA0F1010000DC5FB197FB17
:102E1000F1FC97FBF1F201FB1C7C17460CF1300C26
:102E200008F801CDEEE7A8F101000370218809053B
:102E300001D5452100E06521A0F1010800F8011C41
:102E400009980FA9A1EB0807FF1D00B10120411946
:102E500001EBEA70A1693844081A401EA06120788D
:102E6000C00602D42046FFF7E8FB099828B1D4E950
:102E700001219047206A401C20622078C00622D59C
:102E80002046FFF7DAFB1EE0002E04DBB34502DD2F
:102E900001A8805D00E03020D4E901219047206A3C
:102EA000401C2062761CAAF101005FEA000A0AD1E8
:102EB00000F088F8C0680168405CD4E901219047BF
:102EC000206A401C2062281EA5F10105DCDC07E019
:102ED000D4E9012118F8010B9047206A401C2062B8
:102EE000381EA7F10107F3DC2046FFF7BCFB0320E7
:102EF00011B043E610B5436913B1AFF3008001E0B0
:102F0000FFF788FC012010BD128800F124018284A3
:102F10000022C2840122EDE711684FF0FF32E9E799
:102F2000007B00F08000704770B516460C460546E1
:102F300000F040F8036893F80101012806D0FF2C47
:102F40000FD8185D68B101202C7070BDD3F807014F
:102F50003246214603F2071303442846BDE8704079
:102F600018474FF0FF3070BD754600F0E7F8AE46E9
:102F700005006946534620F00700854618B020B585
:102F8000FEF76AF8BDE820404FF000064FF000075A
:102F90004FF000084FF0000B21F00701AC46ACE801
:102FA000C009ACE8C009ACE8C009ACE8C0098D466E
:102FB0007047000010B500F005F8001D10BD00BFFF
:102FC000DD09000000487047940500202DE9F0411C
:102FD0001F46044603260168072A01F4006004DB4B
:102FE00008B116A505E016A503E008B115A500E097
:102FF00015A521F010002060A069C01EA0610FB1CE
:10300000401EA0612046FFF718FB4FB1D4E9012113
:1030100038469047206A401C2062C01C206206E0AF
:10302000206AFAE7D4E9012115F8010B9047761ED2
:10303000F8D22046FFF717FBBDE8F0814E414E0065
:103040006E616E00494E4600696E66002DE9F047DC
:10305000814616468AB0334878440DC88DE80D0085
:1030600030487844801C03AC0DC884E80D0041F65C
:103070009B300844372190FBF1F290FBF1F5A5F16C
:10308000800501FB12041B3C02D56442012000E0D4
:103090000020DFF890A080460027FA44AAF1BE0A7B
:1030A0000DE0E00709D03246684607EB47010AEB1E
:1030B000810100F00CFB8DE8070064107F1C002CE0
:1030C000EFD1184F7F44AC3F18E0E80714D007EB6E
:1030D00004100DF1180A90E80E008AE80E00C0688E
:1030E000F04201D198190890324606A903A800F0D1
:1030F000EEFA03AB83E807006D10641C002DE4D1E9
:1031000032466946B8F1000F03A802D000F0CBFAAE
:1031100001E000F0DCFAC9E90001C9F808200AB0B2
:10312000BDE8F087300A000010B50446AFF3008018
:103130002046BDE81040FDF798B8000000487047F1
:10314000740500204FF0013C50F8042B51F8043B6B
:103150009A4221D1A2EB0C03934313EACC1317D16B
:1031600050F8042B51F8043B9A4215D1A2EB0C0302
:10317000934313EACC130BD150F8042B51F8043BC2
:103180009A4209D1A2EB0C03934313EACC13DBD090
:103190004FF00000704700BFD01A01BAB1FA81F1B8
:1031A00001F0180122FA01F0CB40C1F12001DBB29D
:1031B000C0B2C01A2CFA01F3D11A914311EAC3111B
:1031C000E6D170475FEA400C08BF91F0000F4FEA6C
:1031D0008C234FEAC12243EA51514FEA1C5018BFD9
:1031E00000F5F0404FEA300018BF41F000415FEABF
:1031F0006C5C00F02980BCF1FF3F08BF40F08040CC
:103200007047130C06BF12044FF0100C4FF0000C67
:10321000130E04BF12020CF1080C130F04BF1201AD
:103220000CF1040C930F04BF92000CF1020CD30FAD
:1032300004BF52000CF1010C11464FF00002A0F146
:103240001F00A0EB0C00704711F0004F08BF704743
:1032500031F000413FF4D5AF0B0C06BF09044FF02D
:10326000100C4FF0000C0B0E04BF09020CF1080CFF
:103270000B0F04BF09010CF1040C8B0F04BF890074
:103280000CF1020CCB0F04BF49000CF1010CCCF186
:103290002003A0EB0C0022FA03F302FA0CF241EA3D
:1032A000030100F10100704720F07F4C80EA030029
:1032B00023F07F47ACEB070303F57C5300F000409D
:1032C00003F1FF032DE980494FEA154B09B44FEA9A
:1032D000144325EA0B4E24EA03480FF2042606EBBA
:1032E000132749083E785FEA320203FB0667C7F5F9
:1032F000000707FB06F64FEA54374FEAD64606F1B9
:10330000020607FB066CCCF1005C4FEA1C472CEA76
:10331000074C07FB06F40CFB06F504EB15464FEAD9
:10332000961634BF00204FF000404FEAD13706FB1D
:1033300007FC4FEA1C4C0CFB0BF7D21B03FB0CF7F2
:1033400061EB07010CFB0EF7B0EB074072EB174285
:103350000CFB08F734BFA2EB0742B2EB074261EB6C
:1033600017414FEA0C444FEA910706FB07FC4FEA6E
:103370001C4C0CFB0BF7B0EBC74072EB573203FB56
:103380000CF734BFA2EBC742B2EBC74261EB573137
:103390000CFB0EF7B0EBC70072EB57720CFB08F793
:1033A00034BFA2EBC702B2EBC70261EB5771039FB8
:1033B0004FEA816141EA921104EBCC044FEAD13724
:1033C0004FEA826206FB07FC42EA90124FEA8060F5
:1033D0004FEA1C4C0CFB0BF7D21B03FB0CF761EB09
:1033E00007010CFB0EF7B0EB074072EB17420CFB2A
:1033F00008F734BFA2EB0742B2EB074261EB17417B
:103400004FEA8C554FEA910704EB9C2406FB07FC1E
:103410004FEA1C4C0CFB0BF7B0EBC74072EB57327A
:1034200003FB0CF734BFA2EBC742B2EBC74261EB20
:1034300057310CFB0EF7B0EBC70072EB57720CFB69
:1034400008F734BFA2EBC702B2EBC70261EB5771BA
:1034500015EB4C254FEA816141EA92114FEA8262F5
:103460004FEAD13742EA901206FB07FC44F1000410
:103470004FEA80604FEA1C4C0CFB0BF7D21B03FB9E
:103480000CF761EB07010CFB0EF7B0EB074072EB9A
:1034900017420CFB08F734BFA2EB0742B2EB07421E
:1034A00061EB174115EB1C154FEA813141EA92415E
:1034B0004FEA823242EA90424FEA80304FEA0C767D
:1034C00044F1000448EA03434EEA0B484FF0000E73
:1034D000B2EB080C71EB030724BF624639464EEB92
:1034E0000E0E4FF0000B0018524149414BEB0B0BF5
:1034F000B2EB080C71EB03077BF1000B24BF6246B3
:1035000039464EEB0E0E4FF0000B00185241494168
:103510004BEB0B0BB2EB080C71EB03077BF1000BD1
:1035200024BF624639464EEB0E0E51EA020718BF21
:1035300046F0010616EB0E7655F1000254F100013B
:1035400003D5BDE88901BDE80088BDE88901BDE873
:103550000048B619524141EB0101A3F10103704744
:1035600080807F7E7D7C7B7A7978777676757473C0
:10357000727171706F6E6E6D6C6C6B6A6A6968687F
:10358000676666656464636362616160605F5F5E15
:103590005E5D5D5C5C5B5B5A5A595958585757568B
:1035A00056555555545453535252525151505050F0
:1035B0004F4F4F4E4E4D4D4D4C4C4C4B4B4B4A4A42
:1035C0004A49494948484847474747464646454586
:1035D00045444444444343434342424242414141BF
:1035E000002B26D4770021D01CB54FEA370703B44F
:1035F0004FF010004FF010014FF000000FBCBDE87D
:1036000010400BF1010BBBF1010F08BF5FEA170778
:1036100022BF12F1010211F101014FF0004143F10B
:10362000000300F0004043EA00007047F9D3570858
:10363000DAE746EA064613F1400F4FEA16461FDD69
:1036400013F1200FDFBF16430A46002120335B42EF
:10365000C8D0C3F1200746EA064602FA07F74FEA48
:10366000164646EA0706C3F1200722FA03F201FADA
:1036700007F721FA03F14FF0000342EA0702B1E72E
:1036800046EA020646EA06464FEA164646EA0106BA
:10369000BCBF46EA0646360C4FF000034FF000026E
:1036A0004FF000019EE72DE9C048934630B491E801
:1036B000380007C831EA400C48BF34EA430C03D550
:1036C000FFF7F2FDFFF78CFFF0BCBDE800882DE9A5
:1036D000C048934630B491E8380007C810F0804FD6
:1036E00008BF13F0804F03D100F005F8FFF778FF13
:1036F000F0BCBDE8008820F07F4780EA030023F09B
:103700007F4C07EB0C03A3F57C5300F00040A3F1C2
:10371000FE0392F0000F00F0B38095F0000F00F070
:1037200077802DE901494FEA11404FEA144621EA1A
:10373000004800FB06FC24EA064708FB06F607FBE8
:1037400008F800FB07F718EB06484CEB164C4FEA5D
:10375000124B18EB07484FEA15464CEB174022EA8C
:103760000B4E0BFB06FC25EA06470EFB06F607FB95
:103770000EFE0BFB07F71EEB064E4CEB164C4FF004
:1037800000061EEB074E4CEB174B18EB0B0840F1F5
:10379000000018EB0E0B58EB000840F100008F1AE8
:1037A0004FF000013CBFC943661B14BFB5EB040CCE
:1037B00000213CBFC943F61B4FEA17444EEA8E0E68
:1037C00027EA04454FEA1C4704FB07622CEA074C32
:1037D00005FB07F70CFB05F604FB0CFC16EB074694
:1037E00042EB174216EB0C4642EB1C421BEB060663
:1037F00058EB0202414146EA9E0601D5BDE8018927
:10380000B619524141EB0101A3F10103BDE8018961
:103810004FEA14454FEA114724EA054621EA074CCE
:1038200005FB07F406FB07F70CFB06F105FB0CFC98
:1038300011EB074144EB17444FEA124711EB0C41DF
:1038400044EB1C4422EA074C05FB07F206FB07F792
:103850000CFB06F605FB0CFC16EB074642EB174289
:1038600016EB0C4642EB1C456A1854F1000148BFA8
:103870007047B619524141EB0101A3F101037047B2
:1038800095F0000F37D04FEA11424FEA144721EA72
:10389000024624EA074C02FB07F106FB07F70CFB84
:1038A00006F402FB0CFC14EB074441EB17414FEA12
:1038B000154714EB0C4441EB1C4125EA074C02FB75
:1038C00007F506FB07F70CFB06F602FB0CFC16EBF4
:1038D000074645EB174516EB0C4645EB1C42121903
:1038E00051F1000148BF7047B619524141EB010147
:1038F000A3F1010370474FEA14454FEA114724EA48
:10390000054621EA074C05FB07F106FB07F70CFB10
:1039100006F24FF0000605FB0CFC12EB074241EBF0
:10392000174112EB0C4251EB1C4148BF70479218F3
:1039300041EB0101A3F101037047490050EAC120A6
:1039400018BF04204A0D18BF40F0010040F2FF727A
:10395000B2EB515F08BF40F00200012808BF05200C
:10396000704730380A2801D2012070470020704784
:1039700010B500290AD00878002807D005487844F7
:10398000FFF7E0FB002801D0002010BD024878447A
:1039900010BD0000860200007E02000010B5002964
:1039A0000AD00878002807D005487844FFF7CAFBFA
:1039B000002801D0002010BD0248784410BD00004E
:1039C000760200006E020000FFF75EB904000008F6
:1039D00000000000000000020001000010000000D4
:1039E000000000000000000030313233343536373B
:1039F0003839414243444546403058003031323333
:103A00003435363738396162636465664030780032
:103A100002400000000000A000000000054000007F
:103A2000000000C8000000000C4000000000409CA6
:103A300000000000194000000020BCBE0000000093
:103A400034400000BFC91B8E00000004B5400000D8
:103A5000504BCFD06607E2CF010000006C41000060
:103A60003E8251AADFEEA73401000000D9420000D7
:103A7000DCB5A0E23A301F97FFFFFFFFB44500001E
:103A8000FD25A0C8E9A3C14FFFFFFFFFFF3F0000D6
:103A90000000008000000000FF3F000000000080E8
:103AA00000000000504F5354202F64657669636511
:103AB000732F373230373138352F64617461706F4E
:103AC000696E747320485454502F312E310D0A61A1
:103AD00070692D6B65793A726E325665727936531C
:103AE0005A5543417632376B4A61665431555339E2
:103AF00039413D0D0A486F73743A6170692E6865EB
:103B0000636C6F7564732E636F6D0D0A436F6E7413
:103B1000656E742D4C656E6774683A25640D0A0DE8
:103B20000A000000504F5354202F64657669636586
:103B3000732F373230373138352F64617461706FCD
:103B4000696E747320485454502F312E310D0A6120
:103B500070692D6B65793A726E325665727936539B
:103B60005A5543417632376B4A6166543155533961
:103B700039413D0D0A486F73743A6170692E68656A
:103B8000636C6F7564732E636F6D0D0A436F6E7493
:103B9000656E742D4C656E6774683A36330D0A0D88
:103BA0000A7B226461746173747265616D73223A79
:103BB0005B7B226964223A227379735F74696D6555
:103BC000222C2264617461706F696E7473223A5B97
:103BD0007B2276616C7565223A25647D5D7D5D7D15
:103BE00000000000303D00080000002058000000E8
:103BF0006C010008883D000858000020800B000080
:103C0000880100081C00000043000000F8FFFFFFCF
:103C10000C0000000E0000000F0000002E0000004D
:103C20001001000043000000F8FFFFFF004040408B
:103C3000404040404040414141414140404040407F
:103C4000404040404040404040404040400502022B
:103C500002020202020202020202020202202020EA
:103C60002020202020202002020202020202909046
:103C70009090909010101010101010101010101044
:103C80001010101010101010020202020202888898
:103C900088888888080808080808080808080808A4
:103CA000080808080808080802020202400000008C
:103CB0000000000000000000000000000000000004
:103CC00000000000000000000000000000000000F4
:103CD00000000000000000000000000000000000E4
:103CE00000000000000000000000000000000000D4
:103CF00000000000000000000000000000000000C4
:103D000000000000000000000000000000000000B3
:103D100000000000000000000000000000000000A3
:103D20000000000000000000000000000000000093
:103D300000A24A0400000000000000000102030489
:103D40000607080900000000010203040102030441
:103D500006070809020406086A69616F79616E0046
:103D600064697374616E6365006C6F6E6769747506
:103D70006465007072657375726500000000000074
:083D800000000000000000003B
:0400000508000131BD
:00000001FF
